:100000000C94421A0C94731A0C94731A0C94731A6D
:100010000C94731A0C94731A0C94731A0C94731A2C
:100020000C94731A0C94731A0C94731A0C94731A1C
:100030000C94731A0C94EE860C94731A0C94731A25
:100040000C94731A0C9443590C94731A0C94731AED
:100050000C94731A0C94731A0C94AC9D0C9429F59F
:100060000C94731A0C941A380C9410380C94731A5C
:100070000C94731A0C94731A0C94731A0C94731ACC
:100080000C94731A0C94731A0C94731A0C94731ABC
:100090000C94731A0C94731A0C94731A0C94731AAC
:1000A0000C94731A0C94731A0C94731A0C94731A9C
:1000B0000C94731A0C94731A0C94731A0C94731A8C
:1000C0000C94731A0C94731A0C94731A0C94731A7C
:1000D0000C94731A0C94731A0C94731A0C94731A6C
:1000E0000C94731AFC7EFF7EEE7EF27EF87E367FE5
:1000F000037F077F0D7F117F157F1B7F1F7F237F6E
:10010000367F297F2D7F317FBCCD95CD98CDBFCD5A
:100110009BCD9ECDA1CDADCDA4CDBACDA7CDAACD41
:1001200034ECB6EAEFEA70ECEFEAEFEAEFEAEFEA76
:10013000EFEAEFEAEFEAEFEAEFEAEFEAEFEAEFEAF7
:10014000EFEAEFEAEFEAEFEAEFEAEFEAEFEAEFEAE7
:10015000EFEAEFEAEFEAEFEAEFEAEFEA6AECEFEA5A
:10016000EFEAEFEAEFEAEFEAEFEAEFEAEFEA43EC71
:10017000EFEAEFEAEFEAEFEAEFEAEFEAEFEAEFEAB7
:10018000EFEAEFEA87ECECEA43F448F44DF457F475
:1001900061F4DAF46BF473F47BF485F48FF499F47E
:1001A000A8F4B2F4DAF4BCF4C6F4D0F4084AD73BAD
:1001B0003BCE016E84BCBFFDC12F3D6C74319ABD36
:1001C00056833DDA3D00C77F11BED9E4BB4C3E915A
:1001D0006BAAAABE000000803F05A84CCDB2D44E49
:1001E000B93836A9020C50B9918688083CA6AAAA4B
:1001F0002ABE000000803F000C94BCCD0C94C4DBF0
:100200000C941C540C94717B0C94749D0C94A1CA96
:100210000C94ADDA0C94C4C80C94D53B0C949BCDD3
:100220000C94BEDB0C940FE70C94FADD0C94F6BF33
:100230000C9473F40C946CDD0C94CADB0C9419AD23
:100240000C9443520C949DCA0C947E380C94CF8528
:100250000C94A2790C94FAB90C9446EA0C94A8F484
:100260000C94A1CD0C9407520C9447960C94D0F4A6
:100270000C940D7F0C9412E70C94A9CA0C9421BC29
:100280000C9499F40C94F9850C94BDCA0C946D7B74
:100290000C943BDA0C94AF380C94A4AE0C94ABC81D
:1002A0000C94F87E0C944DF40C94C5CA0C9430BA9E
:1002B0000C94FF7E0C94BCF40C94A8AE0C94EE7ECF
:1002C0000C94DAF40C94E5530C9482BC0C94C6F4B0
:1002D0000C94B9CA0C9448F40C94AACD0C94B9DAD5
:1002E0000C94A4CD0C94297F0C94ECAB0C94B6EA3E
:1002F0000C942ABA0C9476790C94157F0C94D6DB66
:100300000C9415AD0C94FBAB0C94B2DB0C946BF419
:100310000C94DA510C945BBD0C9442DE0C948BFF70
:100320000C94B1D90C94BE380C94367F0C943B5489
:100330000C94A9380C947ABC0C949D380C9461F4FC
:100340000C9461380C9426520C9485F40C9487EC30
:100350000C949ECD0C948FF40C941B7F0C94777BA3
:100360000C94117F0C94B2F40C94B1CA0C941CBC84
:100370000C94D8FD0C94317F0C9498CD0C94D262DF
:100380000C944B3D0C94D0DB0C9457F40C94B5CAF0
:100390000C94A3520C94CAD90C9424BA0C9423E65E
:1003A0000C947ECA0C94A7CD0C94BDDD0C94A6AE23
:1003B0000C94FFB90C94E73E0C94BD390C946F7B00
:1003C0000C9409DA0C94FD530C942E520C946ADAB6
:1003D0000C94C6530C9443F40C94C1390C94CF6222
:1003E0000C94ADCD0C9466C90C9426BC0C9411AD44
:1003F0000C94A2AE0C94BACD0C94A5CA0C9434EC17
:100400000C941EBA0C94233A0C9450860C9443EC32
:100410000C94A3380C9464530C9428BE0C94597C0F
:100420000C94ECEA0C94AAAE0C94E3D90C94ADCAEB
:100430000C94A5580C943AEA0C94EFEA0C941F7FA4
:100440000C9422DA0C9417BC0C94F5B90C94B6B940
:100450000C942D7F0C9467DA0C946CBA0C9427865C
:100460000C944EDA0C94F27E0C9470EC0C9463387D
:100470000C946DDA0C9499790C947BF40C9404BA76
:100480000C94AB790C946AEC0C94FC7E0C9417AD34
:100490000C94F6D90C94B8DB0C94037F0C940CE705
:1004A0000C945B520C9413AD0C94077F0C9495CD77
:1004B0000C94E9550C945F7D0C94C1CA0C94237F75
:1004C0000C94CE620C94BFCD0C94AEDD4E414E49DF
:1004D0004E495459494E46CDCCCC3D0AD7233C1702
:1004E000B7D13877CC2B329595E6241FB14F0A004F
:1004F0000020410000C84200401C4620BCBE4CCA3F
:100500001B0E5AAEC59D7400407A10F35A00A072BB
:100510004E18090010A5D4E80000E876481700003E
:10052000E40B54020000CA9A3B000000E1F505000C
:100530000080969800000040420F000000A0860155
:10054000000000102700000000E803000000006425
:1005500000000000000A0000000000010000000090
:10056000002C76D888DC674F0823DFC1DFAE59E165
:10057000B1B796E5E3E453C63AE651997696E8E6D4
:10058000C28426EB898C9B62ED407C6FFCEFBC9CA7
:100590009F40F2BAA56FA5F490055A2AF75C936BB9
:1005A0006CF9676DC11BFCE0E40D47FEF520E6B574
:1005B00000D0ED902E0300943577050080841E084E
:1005C0000000204E0A000000C80C333333330F986C
:1005D0006E12831141EF8D2114893BE65516CFFE33
:1005E000E6DB18D1844B381BF77C1D901DA4BBE4BF
:1005F00024203284725E228100C9F124ECA1E53D01
:1006000027434F4D4D554E49434154494F4E0044A9
:10061000525952554E004552524F525300494E4680
:100620004F004543484F00536C6565702E2E2E00D9
:100630004D65736820706F696E742063616E6E6FB4
:1006400074206265207265736F6C7665640A00437E
:100650006C69636B20746F20526573756D652E2E07
:100660002E004E6F204D6F76652E00456E6420661D
:10067000696C65206C6973740A00426567696E2055
:1006800066696C65206C6973740A00286E6F206659
:10069000696C65290043757272656E742066696CB9
:1006A000653A20005344207072696E74696E672049
:1006B0006279746520004E6F742053442070726913
:1006C0006E74696E670A0044656C6574696F6E20AC
:1006D0006661696C65642C2046696C653A20004649
:1006E000696C652064656C657465643A0025697998
:1006F00020256964202569682025696D2025697396
:10070000005072696E742074696D653A2000496EFC
:1007100076616C69642050696E204D6F64650A00D3
:1007200045202553006F66660044454255473A0010
:100730004D3131322053687574646F776E004D31DE
:10074000313320530042656420436F6F6C696E67DC
:100750002E2E2E004265642048656174696E672EF6
:100760002E2E0050533A300A0050533A310A0053AB
:10077000554E4C55205338204F46462E0043484195
:100780004D4245525F54454D504552415455524596
:10079000004D4F54494F4E5F4D4F44455300544810
:1007A00045524D414C5F50524F54454354494F4E72
:1007B000004155544F5245504F52545F53445F537C
:1007C00054415455530050524F4D50545F5355505F
:1007D000504F525400454D455247454E43595F5086
:1007E000415253455200434153455F4C4947485499
:1007F0005F4252494748544E45535300544F474770
:100800004C455F4C494748545300534F4654574159
:1008100052455F504F574552004255494C445F5036
:10082000455243454E54004C4556454C494E475F52
:1008300044415441005A5F50524F42450041555483
:100840004F4C4556454C005052494E545F4A4F421A
:100850000050524F4752455353004155544F524553
:10086000504F52545F54454D5000564F4C554D45D6
:10087000545249430042494E4152595F46494C4502
:100880005F5452414E534645520053455249414CE4
:100890005F584F4E5F584F4646004649524D5741AC
:1008A00052455F4E414D453A4D61726C696E203242
:1008B0002E302E352E332028476974487562292042
:1008C000534F555243455F434F44455F55524C3A51
:1008D00068747470733A2F2F6769746875622E6339
:1008E0006F6D2F4D61726C696E4669726D776172C2
:1008F000652F4D61726C696E2050524F544F434FBB
:100900004C5F56455253494F4E3A312E30204D419F
:100910004348494E455F545950453A53554E4C55FE
:100920002053382045585452554445525F434F5543
:100930004E543A3120555549443A636564653261F5
:1009400032662D343161322D343734382D396231ED
:10095000322D6335356336326633363766660A00C4
:100960002F2F20004D31343520533C696E6465785B
:100970003E206F7574206F662072616E6765202857
:10098000302D31290A00416363656C6572617469B9
:100990006F6E3A2050005741524E494E4721204C2D
:1009A0006F77205A204A65726B206D6179206C65E3
:1009B000616420746F20756E77616E746564207059
:1009C00061757365732E0A0020204D61783A20000E
:1009D00020204D696E3A2000536F667420656E6466
:1009E00073746F70733A200046523A0020466C6F61
:1009F000773A200050726F746563746564205069A3
:100A00006E0A00496E76616C69642065787472754F
:100A10006465720A0020643A0020693A0020703A46
:100A2000006469730043290A0061626C65642028D0
:100A30006D696E2074656D702000436F6C64206575
:100A40007874727564657320617265200046696C04
:100A5000616D656E742072756E6F757420004661ED
:100A6000696C656420746F20656E61626C652042FC
:100A70006564204C6576656C696E670A004D657328
:100A80006820426564204C6576656C206461746101
:100A90003A0A00496E76616C6964206D6573682E50
:100AA0000A004D34323120696E636F72726563746F
:100AB00020706172616D6574657220757361676520
:100AC0000A004F666673657473204170706C6965C7
:100AD00064004572723A20546F6F20666172210083
:100AE000546F6F206661722066726F6D207265664A
:100AF0006572656E636520706F696E740A004545A6
:100B000050524F4D204F4B0A00446F6E652070725B
:100B1000696E74696E672066696C650A004D3737C7
:100B2000004D33310022061D0616060F060106454C
:100B300072726F722077726974696E6720746F20A9
:100B4000454550524F4D210A00627573793A207025
:100B5000617573656420666F7220696E7075740AC2
:100B600000627573793A2070617573656420666FF1
:100B70007220757365720A00627573793A2070721B
:100B80006F63657373696E670A004D3630300053CA
:100B9000544F505045442E20005072696E74657257
:100BA0002073746F707065642064756520746F20A5
:100BB0006572726F72732E204669782074686520A2
:100BC0006572726F7220616E6420757365204D3995
:100BD000393920746F20726573746172742E202805
:100BE00054656D70657261747572652069732072E9
:100BF000657365742E205365742069742061667472
:100C000065722072657374617274696E67290A0077
:100C10004E6F20436865636B73756D2077697468E8
:100C2000206C696E65206E756D6265722C204C615A
:100C30007374204C696E653A2000636865636B735A
:100C4000756D206D69736D617463682C204C6173E0
:100C500074204C696E653A20004C696E65204E75B3
:100C60006D626572206973206E6F74204C617374BD
:100C7000204C696E65204E756D6265722B312C209B
:100C80004C617374204C696E653A20004D313130EF
:100C90000053442072656164206572726F720A00AD
:100CA0002121204B494C4C2063617573656420629F
:100CB00079204B494C4C20627574746F6E2F7069AB
:100CC0006E0A002121204B494C4C206361757365ED
:100CD0006420627920746F6F206D75636820696E7F
:100CE0006163746976652074696D65202D20637574
:100CF0007272656E7420636F6D6D616E643A200070
:100D0000363726033C3D380E2E303E12131A1C187F
:100D100008440AFF430C080900014C6F6164206D10
:100D20006D00556E6C6F6164206D6D0046696C2EB0
:100D3000204469612E004520696E206D6DC2B300AC
:100D400020082046616374002008204D617800204F
:100D500008204D696E004175746F74656D700056A2
:100D600054726176204D696E00566D696E00566D45
:100D70006178204500566D6178205A00566D617883
:100D8000205900566D61782058002062797465738F
:100D90003B20637263200053657474696E6773202F
:100DA00053746F726564202800454550524F4D20A2
:100DB0006461746173697A65206572726F722E0A5C
:100DC000002073746F7265642073657474696E6754
:100DD0007320726574726965766564202800202826
:100DE00063616C63756C6174656429210A0020215C
:100DF0003D2000454550524F4D20435243206D69E0
:100E0000736D61746368202D202873746F7265643C
:100E1000292000496E6465783A2000204D61726C8B
:100E2000696E3D563736290A00454550524F4D20D0
:100E300076657273696F6E206D69736D6174636836
:100E40002028454550524F4D3D0050726573732028
:100E5000627574746F6E20746F2068656174206EA3
:100E60006F7A7A6C650A00496E73657274206669E0
:100E70006C616D656E7420616E6420707265737351
:100E800020627574746F6E0A00206E6F7420656E38
:100E900074657265642E0A00206F6620004D424C16
:100EA0002047323920706F696E7420004A206F75B8
:100EB00074206F662072616E67652028302D0049AE
:100EC000206F7574206F662072616E676520283010
:100ED0002D004D6573682070726F62696E672064C3
:100EE0006F6E652E0A005374617274206D657368AD
:100EF0002070726F62696E6720776974682022477C
:100F00003239205331222066697273742E0A0047E9
:100F100032380A47323920533200686173206E6FCD
:100F200020646174612E0A004D6573682042656417
:100F3000204C6576656C696E67200053206F757470
:100F4000206F662072616E67652028302D35292E4E
:100F50000A00204D393220580020496E76616C69B4
:100F6000642065787472756465722000496E6974D6
:100F7000004D34323800496E697469616C697A6574
:100F800020454550524F4D0053746570732F6D6D61
:100F900000416363656C65726174696F6E005665CC
:100FA0006C6F636974790053657420486F6D6520B8
:100FB0004F666673657473004E65787420436F7274
:100FC0006E657200446F6E65004E657874004C6506
:100FD00076656C696E6720446F6E6521004E65789A
:100FE0007420506F696E74002569202F20257500CC
:100FF00047323920533100436C69636B20746F2092
:10100000426567696E00486F6D696E672058595A6E
:10101000004C6576656C20436F726E657273004C90
:101020006576656C204265640024F4D43050C38E2C
:1010300020C2A24017828B7011127A910D816CD957
:101040000AA861E108C7586607615143061E4B5D57
:1010500005C145A7041A411104093D9803713931AE
:10106000034036DB0265339102D4305402802E1DDA
:1010700002632CEE01752AC501B028A0011027815A
:10108000018F2564012B244B01E0223401AC211F88
:10109000018D200D01801FFC00841EED00971DDFD7
:1010A00000B81CD200E61BC600201BBC00641AB2AC
:1010B00000B219A8000A19A0006A189900D1179166
:1010C0000040178B00B516840031167E00B31579E9
:1010D000003A157300C7146F0058146A00EE1366C7
:1010E000008813630025135E00C7125B006C125763
:1010F0000015125400C111510070114F0021114B05
:1011000000D61049008D10470046104400021042DE
:1011100000C00F4000800F3E00420F3C00060F3B16
:1011200000CB0E3800930E37005C0E3500270E34CE
:1011300000F30D3200C10D3100900D3000600D2E16
:1011400000320D2D00050D2C00D90C2B00AE0C2902
:1011500000850C29005C0C2700350C27000E0C269E
:1011600000E80B2400C40B2400A00B23007D0B23FC
:10117000005A0B2100390B2100180B2000F80A1F20
:1011800000D90A1E00BB0A1E009D0A1D00800A1D10
:1011900000630A1C00470A1B002C0A1B00110A1AD4
:1011A00000F7091A00DD091900C4091900AB091973
:1011B00000920917007B091800630917004C0916F3
:1011C0000036091600200916000A091500F5081551
:1011D00000E0081400CC081400B8081400A4081497
:1011E00000900813007D0812006B081300580812C5
:1011F00000460812003408110023081100120811DB
:101200000001081100F0071000E0071000D00710DF
:1012100000C0071000B0070F00A107100091070ED3
:101220000083070F0074070F0065070E0057070EB5
:101230000049070E003B070D002E070E0020070D8A
:101240000013070D0006070D00F9060C00ED060D52
:1012500000E0060C00D4060C00C8060C00BC060C0E
:1012600000B0060C00A4060B0099060C008D060BBE
:101270000082060B0077060B006C060B0061060A65
:101280000057060B004C060A0042060A0038060A00
:10129000002E060A0024060A001A060A0010060993
:1012A0000007060A00FD050900F4050900EB050921
:1012B00000E2050900D9050900D0050900C70509A4
:1012C00000BE050900B5050800AD050800A5050923
:1012D000009C050800940508008C0508008405089A
:1012E000007C050800740508006C0507006505080A
:1012F000005D050700560508004E05070047050775
:10130000004005080038050700310507002A0507D9
:1013100000230507001C050600160507000F05073A
:10132000000805060002050700FB040600F5040797
:1013300000EE040600E8040600E2040700DB0406F1
:1013400000D5040600CF040600C9040600C3040645
:1013500000BD040600B7040600B1040500AC040695
:1013600000A6040600A00405009B040600950405E1
:1013700000900406008A0405008504050080040628
:10138000007A04050075040500700405006B04056F
:101390000066040500610405005C040500570405AF
:1013A00000520405004D04050048040500430405EF
:1013B000003E0404003A040500350405003004042E
:1013C000002C04050027040400230405001E040467
:1013D000001A04040016040500110404000D04049E
:1013E00000090405000404040000040400FC0304D4
:1013F00000F8030400F4030400F0030400EC030409
:1014000000E8030400E4030400E0030400DC030438
:1014100000D8030400D4030400D0030400CC030468
:1014200000C8030300C503030024F404D9201BC42F
:101430000C5C0E9804C4095F0265077101F405F99C
:1014400000FB04B30048048700C10369005803553A
:101450000003034500BE023A008402310053022A11
:10146000002902250004022000E4011C00C8011923
:1014700000AF0117009801140084011300710110DE
:10148000006101100051010E0043010D0036010BF7
:10149000002B010B0020010B00150109000C0109B4
:1014A0000003010800FB000800F3000800EB000740
:1014B00000E4000600DE000600D8000600D20006A8
:1014C00000CC000500C7000500C2000500BD0004F7
:1014D00000B9000400B5000400B1000400AD000430
:1014E00000A9000400A5000300A20003009F00045F
:1014F000009B000300980003009500020093000386
:1015000000900003008D0002008B000300880002A1
:10151000008600020084000300810002007F0002B8
:10152000007D0002007B00020079000200770001CC
:1015300000760002007400020072000100710002D7
:10154000006F0002006D0001006C0002006A0001E3
:1015500000690002006700010066000100650001EB
:1015600000640002006200010061000100600001EF
:10157000005F0002005D0001005C0001005B0001F3
:10158000005A0001005900010058000100570001F5
:1015900000560001005500010054000100530000F6
:1015A00000530001005200010051000100500001F1
:1015B000004F0001004E0000004E0001004D0001F0
:1015C000004C0001004B0000004B0001004A0001EC
:1015D00000490001004800000048000100470001E8
:1015E00000460000004600010045000000450001E3
:1015F00000440001004300000043000100420000DD
:1016000000420001004100000041000100400001D3
:10161000003F0000003F0001003E0000003E0001CE
:10162000003D0000003D0001003C0000003C0000C7
:10163000003C0001003B0000003B0001003A0000BC
:10164000003A0001003900000039000100380000B4
:1016500000380000003800010037000000370001AA
:1016600000360000003600000036000100350000A2
:101670000035000000350001003400000034000097
:10168000003400010033000000330000003300018B
:101690000032000000320000003200010031000082
:1016A0000031000000310001003000000030000077
:1016B00000300001002F0000002F0000002F00006C
:1016C000002F0001002E0000002E0000002E00015F
:1016D000002D0000002D0000002D0000002D000155
:1016E000002C0000002C0000002C0000002C000149
:1016F000002B0000002B0000002B0000002B00013D
:10170000002A0000002A0000002A0000002A000130
:101710000029000000290000002900000029000025
:101720000029000100280000002800000028000017
:10173000002800000028000100270000002700000A
:1017400000270000002700000027000100260000FD
:1017500000260000002600000026000000260001F0
:1017600000250000002500000025000000250000E5
:1017700000250000002500010024000000240000D6
:1017800000240000002400000024000100230000C9
:1017900000230000002300000023000000230000BD
:1017A00000230000002300010022000000220000AE
:1017B00000220000002200000022000000220001A0
:1017C0000021000000210000002100000021000095
:1017D0000021000000210000002100010020000085
:1017E0000020000000200000002000000020000079
:1017F000002000000020000000200001001F000069
:10180000001F0000001F0000001F0000001F00005C
:10181000001F0000001F0001001E0000001E00004D
:10182000001E0000001E000000043700001E2900FA
:1018300000511B00005810000010090000CC0400EB
:1018400000780200004101000023646566696E654E
:101850002044454641554C545F004B6420004B6981
:1018600020004B702000504944204175746F7475FE
:101870006E652066696E69736865642120507574B1
:1018800020746865206C617374204B702C204B6948
:1018900020616E64204B6420636F6E7374616E749C
:1018A000732066726F6D2062656C6F7720696E744D
:1018B0006F20436F6E66696775726174696F6E2E13
:1018C000680A00504944204175746F74756E652034
:1018D0006661696C6564212074696D656F75740A51
:1018E000000A20436C617373696320504944200AE5
:1018F00000204B643A2000204B693A2000204B70B6
:101900003A20002054753A2000204B753A200020E0
:101910006D61783A2000206D696E3A200020643AAB
:10192000200020626961733A2000504944204175CB
:10193000746F74756E652073746172740A00504917
:1019400044204175746F74756E65206661696C65BD
:1019500064212054656D70657261747572652074C0
:101960006F6F20686967680A0050494420417574A8
:101970006F74756E65206661696C656421204261D3
:1019800064206578747275646572206E756D626529
:10199000720A004572723A207574663820666F6E5E
:1019A00074206E6F7420696E697469616C697A6500
:1019B000642E00000C0D00FE07022603BC017FFE12
:1019C00008FE08FE05080806000040F0C888889850
:1019D0007810050808060000C0F88888888888F80C
:1019E0000505050600012030F8302005080806002E
:1019F000002070F820202020E00509090600FF20C3
:101A000070A8A8B888887020050606060001E08C3A
:101A1000EA8C8A0A0509090600FFF8A888888888E0
:101A200088A8F8050A0A0600FE205050505088A8E1
:101A3000A8887003030306000340A040FFFFFFFFD8
:101A4000FFFFFFFFFFFFFFFFFFFFFFFFFFFFFFFFA6
:101A5000FFFF0000000605FF010707060200808067
:101A60008080800080030303060105A0A0A0050676
:101A70000606000050F85050F8500509090600FF0E
:101A80002070A8A07028A87020050707060000C8CD
:101A9000C8102040989805070706000040A0A04005
:101AA000A8906801030306020580808003090906E7
:101AB00001FF20404080808040402003090906014A
:101AC000FF8040402020204040800507070600009E
:101AD00020A8702070A8200505050600012020F828
:101AE00020200203030601FFC0408005010106001B
:101AF00003F8020202060100C0C005070706000045
:101B000008101020404080050707060000708898E4
:101B1000A8C8887003070706010040C04040404045
:101B2000E0050707060000708808102040F8050748
:101B300007060000F808103008887005070706003F
:101B40000010305090F81010050707060000F880CC
:101B5000F008088870050707060000304080F0880C
:101B60008870050707060000F808101020202005DF
:101B700007070600007088887088887005070706C8
:101B8000000070888878081060020505060100C012
:101B9000C000C0C00206060601FFC0C000C04080F1
:101BA00003050506010120408040200503030600CF
:101BB00002F800F803050506010180402040800579
:101BC0000707060000708810202000200507070680
:101BD00000007088B8A8B88070050707060000707C
:101BE0008888F8888888050707060000F04848704C
:101BF0004848F005070706000070888080808870DC
:101C0000050707060000F04848484848F005070760
:101C1000060000F88080F08080F8050707060000C5
:101C2000F88080F0808080050707060000708880BB
:101C300080988870050707060000888888F88888DB
:101C400088030707060100E04040404040E00507E8
:101C500007060000381010101090600507070600F6
:101C6000008890A0C0A0908805070706000080802B
:101C700080808080F805070706000088D8A888883B
:101C800088880507070600008888C8A898888805FE
:101C9000070706000070888888888870050707068F
:101CA0000000F08888F0808080050707060000703B
:101CB000888888A89068050707060000F08888F0E3
:101CC000A09088050707060000708880700888705B
:101CD000050707060000F820202020202005070720
:101CE0000600008888888888887005070706000035
:101CF0008888888850502005070706000088888853
:101D000088A8A8500507070600008888502050883A
:101D10008805070706000088885020202020050736
:101D200007060000F80810204080F80309090601A2
:101D3000FFE080808080808080E00507070600004B
:101D4000804040201010080309090601FFE0202010
:101D50002020202020E005030306000520508805F0
:101D600001010600FEF8030303060105804020057B
:101D7000050506000070087888780507070600004A
:101D80008080F0888888F005050506000070808056
:101D90008870050707060000080878888888780595
:101DA00005050600007088F0807005070706000032
:101DB000304840E04040400507070600FE70888834
:101DC000887808700507070600008080F0888888FA
:101DD000880307070601004000C0404040E00409B6
:101DE000090601FE10003010101010906005070762
:101DF00006000080808890E09088030707060100B5
:101E0000C04040404040E0050505060000D0A8A8BD
:101E1000A8A8050505060000B0C88888880505053E
:101E200006000070888888700507070600FEF088A5
:101E30008888F080800507070600FE788888887803
:101E40000808050505060000B0C880808005050566
:101E500006000078807008F00507070600002020C3
:101E6000F820202018050505060000888888986855
:101E70000505050600008888885020050505060030
:101E8000008888A8A8500505050600008850205045
:101E9000880507070600FE888888502040800505D1
:101EA00005060000F8102040F80309090601FF208C
:101EB00040404080404040200109090602FF8080E8
:101EC000808080808080800309090601FF80404077
:101ED00040204040408005030306000248A890FFD0
:101EE0005072696E74205061757365640020746F60
:101EF0006F206C6F6E6720657874727573696F6E92
:101F00002070726576656E7465640A0020636F6C7C
:101F10006420657874727573696F6E20707265766F
:101F2000656E7465640A0053554E4C552053382035
:101F300052656164792E005072696E74696E672E05
:101F40002E2E00220A00556E6B6E6F776E20636F27
:101F50006D6D616E643A20220054656D706572612A
:101F600074757265005072656865617420414253F2
:101F7000005072656865617420504C410046616E86
:101F8000205370656564004E6F7A7A6C6500426517
:101F900064205A004D61696E005072656865617415
:101FA00020504C4120456E64005072656865617434
:101FB00020504C4120426564005072656865617430
:101FC0002041425320456E6400507265686561741B
:101FD000204142532042656400436F6F6C646F7709
:101FE0006E00466C6F77004D6F7665205A00507218
:101FF000696E742066726F6D204D65646961004D75
:102000006F76652025736D6D004D6F766520302EDF
:10201000316D6D004D6F766520316D6D004D6F76C1
:10202000652031306D6D004D6F76652041786973A4
:1020300000486F74656E6420746F6F20636F6C640A
:10204000004578747275646572004D6F766520592D
:10205000004D6F7665205800486F6D65202573250B
:1020600073257320466972737400000021002400F8
:1020700027002A002D003000330001010000040178
:1020800007010A0100002200250028002B002E0075
:102090003100340002010000050108010B010000BD
:1020A00020002300260029002C002F003200000110
:1020B00000000301060109010505050507050808DB
:1020C0000808020202020A0A0808040404040101C2
:1020D00001010101010103030303030303030407D7
:1020E00007070C0C0C0C0C0C0C0C0202020206066E
:1020F0000606060606060B0B0B0B0B0B0B0B010261
:102100001020200808102040102040800201020109
:1021100008040201010204081020408080402010C1
:10212000080402018004020180402010080402011A
:102130000804020101020408102040800102040882
:102140001020408000000A0B02090C0D0E08070346
:10215000040100000000000000000000000000007A
:10216000000000000000000000000000000000006F
:10217000121110000000000000000000000000002C
:1021800000000000000000000000687474703A2F26
:102190002F6D61726C696E66772E6F726700322EDA
:1021A000302E352E33002020506C616E6E657242E9
:1021B000756666657242797465733A2000204672CE
:1021C0006565204D656D6F72793A2000436F6D70C3
:1021D000696C65643A204A756E20203720323032AF
:1021E000300A00204C61737420557064617465641A
:1021F0003A20323032302D30332D3331207C2041A3
:102200007574686F723A20283139303532382C2095
:10221000534C2D30313342290A00322E302E352EC8
:10222000330A0053756E6C750020536F66747761C6
:1022300072652052657365740A0020576174636883
:10224000646F672052657365740A002042726F776D
:102250006E206F75742052657365740A002045788E
:102260007465726E616C2052657365740A00506FFC
:1022700077657255700A006175746F25632E67006B
:102280004732385859004D31303031006572726F25
:10229000722077726974696E6720746F2066696C4A
:1022A000650A00446F6E6520736176696E6720660B
:1022B000696C652E0A004D323900456E6473746F87
:1022C0007073002553202563202563202563202576
:1022D0006300656E6473746F7073206869743A206C
:1022E0000001FFFFFFFFFFFFFFFFFFFFFFFFFF0FEB
:1022F000FFFFFFFFFFFFFFFFFFFFFFFFFF1E0000CD
:10230000000000000000000007FFFF380000000090
:1023100000000000000003FFFF700000000000004C
:102320000000000001FFFF6000000000000000004E
:10233000000000FFFF60000000000000000000003F
:10234000007FFFC000000000000000007800003F98
:10235000FFC00FC0FC00000000007818001FFFC085
:102360003FE1FF0000000000783C000FFFC07FF35A
:10237000FF8000000000783C0007FFC0FFFFFFC0A7
:1023800000000000783C0003FFC1F87F87E00000F8
:10239000000078000001FFC1F03F03E000000000F2
:1023A00078000000FFC1E01E01E01F0003E0783C60
:1023B00003F07FC1E01E01E07FC00FF8783C07FC0E
:1023C0003FC1E01E01E1FFE01FFC783C0FFE1FC192
:1023D000E01E01E3FFF03FFE783C1FFE0FC1E01E50
:1023E00001E3F3F83F3E783C3F3F07C1E01E01E7C1
:1023F000E0FC7C1F783C3E1F07C1E01E01E7C07C6B
:102400007C0F783C3C0F03C1E01E01E7807C780F15
:10241000783C3C0F03C1E01E01E7803C7800783C2B
:102420003C0F03C1E01E01E7803C7800783C3C0F84
:1024300003C1E01E01E7803C7800783C3C0F03C1FB
:10244000E01E01E7C03C7800783C3C0F03C1E01E71
:1024500001E3E03C78007C3C3C0F03C1E01E01E35B
:10246000FF3FF8007FBC3C0F03C1E01E01E1FF3FCE
:10247000F8003FBFFC0F03C1E01E01E0FF3FF80082
:102480001FBFFC0F03C1E01E01E07F3FF8000FBF3C
:10249000FC0F0360000000000000000000000000CE
:1024A000076000000000000000000000000006704F
:1024B0000000000000000000000000000E380000D6
:1024C000000000000000000000001C1E00000000D2
:1024D0000000000000000000780FFFFFFFFFFFFF7B
:1024E000FFFFFFFFFFFFF001FFFFFFFFFFFFFFFF09
:1024F000FFFFFFFF802053697A653A200053442094
:1025000063617264206F6B0A006F70656E526F6F4B
:1025100074206661696C65640A00766F6C756D6520
:102520002E696E6974206661696C65640A005344A3
:1025300020696E6974206661696C0A004D3233202F
:1025400025730046696C652073656C65637465640A
:102550000A0046696C65206F70656E65643A2000FC
:10256000454E4420535542524F5554494E450A005A
:102570002220706F73002220706172656E743A229F
:1025800000535542524F5554494E452043414C4CFF
:10259000207461726765743A2200747279696E679B
:1025A00020746F2063616C6C207375622D67636F9C
:1025B00064652066696C6573207769746820746F40
:1025C0006F206D616E79206C6576656C732E204D81
:1025D0004158206C6576656C2069733A310A005762
:1025E000726974696E6720746F2066696C653A2041
:1025F00000667265736800646F696E67004E6F777E
:1026000020000200000000000000000000000000A8
:10261000009B4300009B430000C843000020410092
:102620000020410000A0400202040000A040000081
:10263000A04000000040FFFFFF6F70656E00545225
:10264000494747455245440066696C616D656E7443
:10265000007A5F6D6178007A5F6D696E00795F6DF9
:10266000696E00785F6D696E005265706F72746993
:102670006E6720656E6473746F7020737461747517
:10268000730A00486F6D696E67204661696C656406
:10269000005761726E696E673A20486F6D696E67A8
:1026A0002042756D702044697669736F72203C20FA
:1026B000310A002568753A2530326875002568753D
:1026C000642025303268753A253032687500202044
:1026D0002020202020001FE020102010201010209B
:1026E00010202010201030300840048003001FE02C
:1026F0003FF03FF03FF01FE01FE03FF03FF03FF0C2
:102700000FC0078003003FFFF038007030FC30201E
:10271000FC102078102030102C00D02E31D02F7BD0
:10272000D02F7BD02E31D02C00D02030102078102C
:1027300020FC1030FC303800703FFFF03FFFF038D5
:1027400000703186302387102787902F87D02F0382
:10275000D02030102078102078102030102F03D097
:102760002F87D02787902387103186303800703F1D
:10277000FFF01FFFF81FFFF80410400208200208B6
:1027800020041040082080104100104100082080E3
:102790000410400000001FFFF81FFFF820436F7572
:1027A0006E7420583A00453100626564002C207335
:1027B000797374656D2073746F707065642120483F
:1027C00065617465725F49443A20004865617469C7
:1027D0006E67204661696C65640048656174696E66
:1027E00067206661696C656400202D20496E766102
:1027F0006C6964206578747275646572206E756D9D
:1028000062657220210A00544845524D414C2052C5
:10281000554E4157415900546865726D616C2052A4
:10282000756E61776179004572723A204D41585456
:10283000454D50004D415854454D502074726967C4
:102840006765726564004572723A204D494E544581
:102850004D50004D494E54454D5020747269676784
:1028600065726564004D383420582059205A20453F
:102870000070012C0190012701B0012201C0011D4F
:1028800001F00118011002130130020E016002096B
:102890000190020401C002FF000003FA004003F5AA
:1028A000008003F000D003EB002004E6007004E198
:1028B00000E004DC004005D700C005D2004006CD92
:1028C00000D006C8008007C3003008BE00F008B979
:1028D00000C009B400B00AAF00B00BAA00D00CA52C
:1028E00000000EA000500F9B00C0109600501291E7
:1028F0000000148C00C0158700B0178200B0197D4D
:1029000000D01B7800001E730040206E00902269EA
:1029100000F024640040275F0090295A00E02B5506
:1029200000102E500020304B0010324600E03341A2
:102930000090353C001037370070383200A0392D38
:1029400000B03A2800A03B2300603C1E00103D1957
:1029500000903D1400103E0F00703E0A00C03E057E
:1029600000003F0000403FFBFF803FF6FFC03FF10B
:10297000FF6F70656E206661696C65642C20466926
:102980006C653A200020453A00205A3A0020593A16
:102990000000002110422063308440A550C660E74B
:1029A00070088129914AA16BB18CC1ADD1CEE1EF04
:1029B000F13112100273325222B5529442F772D69C
:1029C00062399318837BB35AA3BDD39CC3FFF3DE54
:1029D000E36224433420040114E664C774A44485EC
:1029E000546AA54BB528850995EEE5CFF5ACC58DA4
:1029F000D55336722611163006D776F6669556B43C
:102A0000465BB77AA719973887DFF7FEE79DD7BCF3
:102A1000C7C448E5588668A778400861180228238B
:102A200038CCC9EDD98EE9AFF9488969990AA92B43
:102A3000B9F55AD44AB77A966A711A500A333A12DB
:102A40002AFDDBDCCBBFFB9EEB799B588B3BBB1A93
:102A5000ABA66C877CE44CC55C222C033C600C412B
:102A60001CAEED8FFDECCDCDDD2AAD0BBD688D49E3
:102A70009D977EB66ED55EF44E133E322E511E707B
:102A80000E9FFFBEEFDDDFFCCF1BBF3AAF599F7833
:102A90008F8891A981CAB1EBA10CD12DC14EF16FE4
:102AA000E18010A100C230E3200450254046706749
:102AB00060B9839893FBA3DAB33DC31CD37FE35E75
:102AC000F3B1029012F322D2323542145277625699
:102AD00072EAB5CBA5A89589856EF54FE52CD50D85
:102AE000C5E234C324A014810466744764245405E9
:102AF00044DBA7FAB79987B8975FE77EF71DC73C15
:102B0000D7D326F2369106B0165766767615463438
:102B1000564CD96DC90EF92FE9C899E9898AB9AB24
:102B2000A94458654806782768C018E1088238A388
:102B3000287DCB5CDB3FEB1EFBF98BD89BBBAB9AB4
:102B4000BB754A545A376A167AF10AD01AB32A92D8
:102B50003A2EFD0FED6CDD4DCDAABD8BADE89DC9C4
:102B60008D267C076C645C454CA23C832CE01CC128
:102B70000C1FEF3EFF5DCF7CDF9BAFBABFD98FF854
:102B80009F176E367E554E745E932EB23ED10EF078
:102B90001E416D6178204500416D6178205A0041E9
:102BA0006D6178205900416D6178205800412D54A5
:102BB000726176656C00412D5265747261637400B8
:102BC000416363656C0056652D4A65726B00565A09
:102BD0002D4A65726B0056592D4A65726B00565826
:102BE0002D4A65726B004573746570732F6D6D00AF
:102BF0005A73746570732F6D6D00597374657073BB
:102C00002F6D6D005873746570732F6D6D00202FDC
:102C1000002042403A0020403A0020573A007C3CD5
:102C20003E5E2B3D3F2F5B5D3B2C2A225C00000962
:102C3000121B242D363F48415A536C657E7719107C
:102C40000B023D342F265158434A757C676E323B48
:102C50002029161F040D7A7368615E574C452B229C
:102C600039300F061D14636A7178474E555C646DE8
:102C7000767F4049525B2C253E3708011A137D743C
:102C80006F6659504B42353C272E1118030A565F88
:102C9000444D727B60691E170C053A3328214F465C
:102CA0005D546B627970070E151C232A3138414838
:102CB000535A656C777E09001B122D243F365851FC
:102CC0004A437C756E671019020B343D262F737AC8
:102CD0006168575E454C3B3229201F160D046A631C
:102CE00078714E475C55222B3039060F141D252C68
:102CF000373E0108131A6D647F7649405B523C35BC
:102D00002E2718110A03747D666F5059424B171E07
:102D1000050C333A21285F564D447B7269600E07DB
:102D20001C152A233831464F545D626B70793F0081
:102D300043616E63656C004D6F74696F6E00426530
:102D400064204C6576656C696E67005374617274BB
:102D5000205072696E740043616E6E6F7420656EF0
:102D6000746572207375626469723A2000022E2EB7
:102D7000004D38340044697361626C65205374659A
:102D8000707065727300473238004175746F204867
:102D90006F6D65005061757365205072696E7400C7
:102DA0005072696E742041626F72746564004D32B6
:102DB0003520500A4D323400436F6E666967757274
:102DC0006174696F6E0053746F70004368616E6761
:102DD000652046696C616D656E740050726568654A
:102DE000617420437573746F6D004261636B004DB5
:102DF0003231004368616E6765204D65646961002A
:102E00004D38300053776974636820506F7765726E
:102E1000204F6E004D38310053776974636820503D
:102E20006F776572204F6666004D36303020423035
:102E300000526573756D65205072696E74004E6F37
:102E4000204D656469610054756E650053746F7040
:102E5000205072696E7400496E666F20536372650C
:102E6000656E005061726B696E672E2E2E00000039
:102E70005761697420666F720066696C616D656E7A
:102E800074206368616E676500746F20737461728B
:102E900074005761697420666F720066696C616DB9
:102EA000656E7420756E6C6F616400004E6F7A7A87
:102EB0006C652068656174696E6700506C6561734C
:102EC0006520776169742E2E2E0000507265737331
:102ED00020627574746F6E00746F20686561742071
:102EE0006E6F7A7A6C650000496E73657274206645
:102EF000696C616D656E7400616E642070726573DB
:102F00007320627574746F6E00746F20636F6E74DB
:102F1000696E7565005761697420666F7200666935
:102F20006C616D656E74206C6F6164000050726539
:102F3000737320427574746F6E00746F20726573C2
:102F4000756D65207072696E740000576169742038
:102F5000666F72207072696E7400746F2072657390
:102F6000756D652E2E2E00005761697420666F7294
:102F70000066696C616D656E7420707572676500BE
:102F8000004361703A0047322F473320626164206A
:102F9000706172616D65746572730A00656E71753A
:102FA000657565696E672022006F6B0052657365F9
:102FB0006E643A2000506C656173652052657365DC
:102FC00074005052494E5445522048414C54454497
:102FD0000025533A202553004B494C4C45442E20A4
:102FE000005072696E7465722068616C7465642E3D
:102FF000206B696C6C28292063616C6C6564210A04
:10300000006563686F3A004572726F723A000A4D4C
:103010006561737572656420706F696E74733A0AC6
:1030200000347834206D6573682E205A206F6666F0
:103030007365743A2000486F74656E6420746F6F16
:1030400020636F6C640A004D3630303A20546F6F45
:1030500020436F6C640050726573732062757474E2
:103060006F6E20746F20726573756D650A00436121
:103070006E6E6F74206F70656E2073756264697216
:1030800020004C6F61642053657474696E6773002F
:1030900053746F72652053657474696E6773004171
:1030A0006476616E6365642053657474696E6773DA
:1030B00000554E4C4F41442046494C414D454E54DD
:1030C0000046494C414D454E54204348414E4745EA
:1030D00000526573746F72652044656661756C7427
:1030E0007300507265686561742041425320436FDC
:1030F0006E66005072656865617420504C412043D3
:103100006F6E660052756E6F75742053656E736FC7
:1031100072004D37303220542564004D3630302057
:10312000423020542564004D373032203B25640066
:103130004D3730312054256400436F6E74696E75CD
:1031400065005075726765206D6F7265005245535A
:10315000554D45204F5054494F4E533A0050524917
:103160004E54205041555345440020204E6F7A7AEA
:103170006C653A2000205200454550524F4D204981
:103180006E697469616C697A65640A004861726489
:10319000636F6465642044656661756C7420536573
:1031A0007474696E6773204C6F616465640A003BD8
:1031B000200020204D363033200020204D34313285
:1031C00020530046696C616D656E742072756E6F78
:1031D00075742073656E736F723A002055004669EE
:1031E0006C616D656E74206C6F61642F756E6C6FB1
:1031F0006164206C656E677468733A0020204D33FB
:1032000030312050005049442073657474696E67F2
:10321000733A0020460020480020204D31343520EC
:1032200053004D6174657269616C206865617475E5
:103230007020706172616D65746572733A00202050
:10324000473239205334205A00204A002020473288
:103250003920533320490020204D34323020530090
:103260004D65736820426564204C6576656C696EB7
:10327000673A0020204D323036205800486F6D6587
:10328000206F66667365743A0020204D3230352019
:103290004200416476616E6365643A20423C6D6928
:1032A0006E5F7365676D656E745F74696D655F757C
:1032B000733E20533C6D696E5F6665656472617430
:1032C000653E20543C6D696E5F74726176656C5F1B
:1032D00066656564726174653E20583C6D61785F17
:1032E000785F6A65726B3E20593C6D61785F795FEB
:1032F0006A65726B3E205A3C6D61785F7A5F6A65E1
:10330000726B3E20453C6D61785F655F6A65726BEC
:103310003E0020540020204D3230342050004163C4
:1033200063656C65726174696F6E2028756E69746F
:10333000732F7332293A20503C7072696E745F614A
:103340006363656C3E20523C726574726163745FA6
:10335000616363656C3E20543C74726176656C5F9A
:10336000616363656C3E0020204D3230312058008F
:103370004D6178696D756D20416363656C6572613F
:1033800074696F6E2028756E6974732F7332293AD1
:103390000020204D3230332058004D6178696D7522
:1033A0006D206665656472617465732028756E6949
:1033B00074732F73293A00537465707320706572AB
:1033C00020756E69743A0020204D32303020443030
:1033D0000A0020204D3230302044002044697361BF
:1033E000626C65640A0046696C616D656E74207379
:1033F000657474696E67733A0020204D313439204A
:1034000043203B20556E69747320696E2043656CC0
:10341000736975730A0020286D6D290020204732DA
:1034200031202020203B20556E69747320696E2066
:103430006D6D0000004843000048430000C040009C
:10344000008C420000A0420000A0420000C84300DF
:1034500000C042F4010000F401000064000000908C
:103460000100004D656469612052656D6F76656489
:10347000004D6564696120496E736572746564000E
:103480008BFFD8FD11241FBECFEFD1E2DEBFCDBF31
:1034900000E00CBF13E0A0E0B2E0EEE2F0E202E0F8
:1034A0000BBF02C007900D92AA32B107D9F724E1F1
:1034B000AAE2B3E001C01D92A432B207E1F71AE11B
:1034C000C1E4DAE100E006C021970109802FFE0186
:1034D0000F945C0CC034D10780E00807A9F70E9464
:1034E000ABF70D9405100C9400002F923F924F9271
:1034F0005F926F927F928F929F92AF92BF92CF9284
:10350000DF92EF92FF920F931F93CF93DF93CDB78C
:10351000DEB7C554D1090FB6F894DEBF0FBECDBFDC
:1035200026968FAF26972091340323962FAF2397AB
:1035300081E08093340380912B138D3409F415C2FC
:10354000843511F40C94C42B873411F00C94DF2BC8
:103550002091291330912A132B31310509F48EC0A3
:103560009CF42430310534F422303105D4F537FF92
:103570002CC0F7C12430310509F441C02531310593
:1035800011F40C94E12BEDC12A32310509F423C169
:1035900064F42C31310509F48BC02D31310509F06B
:1035A000E0C10E94AB4C0C94E12B2B35310509F4A2
:1035B0008FC02C35310509F490C02A35310509F04A
:1035C000D0C1109233030C94E12B80916F0B8130AA
:1035D00011F00C94E12B0E949A4B0E944E910C9496
:1035E000E12B80916F0B813011F00C94E12B223094
:1035F000310509F080E00E94E4CF0C94E12B80E5D6
:103600000E948D4B882329F00E94C94A6B017C01DE
:1036100003C0C12CD12C760183E50E948D4B8823F9
:1036200061F00E94114B20E030E04AE754E40F942F
:10363000DD050F94E00D6B017C010E94F26080912A
:10364000B412811105C060E087E296E00E9474C860
:103650000E941DF5C60ED71EE81EF91E0E941DF51C
:10366000DC01CB018C199D09AE09BF09B7FD02C071
:103670000C94E12B80E00E940433F0CF0E941D8067
:1036800081110C94E12B8CE0E3E6F2E0DE0111966F
:1036900001900D928A95E1F760E070E080E50E946C
:1036A000744CBE016F5F7F4F0E94EFC30C94E12BFF
:1036B000809146048770873011F00C94EE2B60E007
:1036C0008FE40E94964C81110C94E12B0C94EE2B0C
:1036D0008FE0809333030C94E12B9FE6292E92E038
:1036E000392E27EEE22E2BE0F22E4FEF5EE05DA3A7
:1036F0004CA33FE0C32E3FE0D32E00E010E0D10109
:103700008D911D010E948D4B882309F44BC00E94AE
:10371000114B2B013C01133049F0F601208131811E
:10372000428153810F946C0C2B013C01ACA1BDA1D3
:103730002D913D914D915C91C301B2010F946C0CA0
:103740004B015C012DEB37E346E855EB0F94CD0EB2
:1037500087FD0AC02DEB37E346E855E3C501B40108
:103760000F9477051816F4F4133051F440920B0FB0
:1037700050920C0F60920D0F70920E0F01E012C06C
:10378000A5019401F70160817181828193810F9479
:103790006D0CD7016D937D938D939C931397812F1F
:1037A0000E948D901F5FB4E0EB0EF11CECA1FDA117
:1037B0003496FDA3ECA3F4E0CF0ED11C143009F035
:1037C0009ECF002321F08BE09FE00E9403610E94C6
:1037D0003C950C94E12B80916F0B813011F00C948F
:1037E000E12B89E40E948D4BF82E882321F00E9462
:1037F0000D4B182F01C010E08AE40E948D4B082F5A
:10380000882319F00E940D4B01C080E0FF2011F0C9
:10381000143020F4002341F0843030F080E396E04F
:103820000E9489D60C94E12B90E1EFEFFEE0A3EF2C
:10383000BBE001900D929A95E1F7FF2091F024E012
:103840001202F0011124E85DFF4E40815181628136
:1038500073814093F30B5093F40B6093F50B7093CB
:10386000F60B002391F034E08302F0011124E85EAE
:10387000FF4E80819181A281B3818093F70B909359
:10388000F80BA093F90BB093FA0B40E050E0BA01AB
:1038900086E40E94A2666B017C0120E030E0A90171
:1038A0000F94CD0E18165CF420E030E040E752E4AF
:1038B000C701B6010F94670D6B017C0103C0C12CD9
:1038C000D12C76018090480290904902A0904A0243
:1038D000B0904B0220E030E0A901C701B6010F947F
:1038E0007705882341F0C0924802D0924902E092C5
:1038F0004A02F0924B02009146021091470284E680
:1039000090E09093470280934602C0901902D090B5
:103910001A02E0901B02F0901C0280E090E0A0E808
:10392000BFE38093190290931A02A0931B02B093F5
:103930001C020E944E918092480290924902A092ED
:103940004A02B0924B021093470200934602C09283
:103950001902D0921A02E0921B02F0921C020C94FF
:10396000E12B0E9439790C94E12B009129131091DD
:103970002A130537110509F4A0C70CF037C10C3420
:10398000110509F4B8C40CF059C00931110509F446
:10399000D6C234F50431110509F461C28CF4013149
:1039A000110509F448C234F40230110508F40BC2C1
:1039B0000C94C12B0231110509F485C60C94C12B5E
:1039C0000631110509F470C20CF46AC20731110501
:1039D00009F473C20831110509F484C20C94C12B97
:1039E0000E31110509F41FC3B4F40B31110509F4AC
:1039F000BFC20CF4AFC20C31110509F40CC30D3178
:103A0000110511F00C94C12B809151118E7F809380
:103A100051110C94E12B0032110509F465C30CF42B
:103A2000A6C30A32110509F44DC40B34110511F077
:103A30000C94C12B0E94D2BF0C94E12B09361105C6
:103A400009F4D6C4A4F50335110509F434C6FCF411
:103A50000035110509F4F5C54CF40D34110511F0CC
:103A60000C94C12B0E9421C00C94E12B013511054F
:103A700009F408C60235110511F00C94C12B809190
:103A800033038F7D8061809333030C94E12B0535E4
:103A9000110509F445C60CF416C60C35110509F4D8
:103AA00064C60836110509F42AC40C94C12B0E36DD
:103AB000110509F4DBC484F40B36110509F4CCC4F8
:103AC0000CF4ACC40C36110509F427C50D361105EC
:103AD00009F439C40C94C12B0137110509F427C529
:103AE00094F40F36110509F4D4C40037110511F010
:103AF0000C94C12B41E060E070E080E397E00E940D
:103B000021D90C94E12B0237110509F4CFC60337F4
:103B1000110511F00C94C12B8AE998E00E9489D616
:103B200060E08AE898E00E94E9D460E085E798E0E8
:103B30000E94E9D461E081E89FE00E94E9D461E05D
:103B40008AE698E00E94E9D461E08AE598E00E9464
:103B5000E9D460E081E598E00E94E9D461E087E47F
:103B600098E00E94E9D460E08DE398E00E94E9D4F7
:103B700060E085E398E00E94E9D461E087E298E0A4
:103B80000E94E9D460E089E198E00E94E9D461E014
:103B90008AE098E00E94E9D460E08CEF97E00E9410
:103BA000E9D460E086EE97E00E94E9D460E085ED1C
:103BB00097E00E94E9D460E086EC97E00E94E9D4A7
:103BC00060E081EB97E00E94E9D461E08EE997E044
:103BD0000E94E9D460E081E997E00E94E9D460E0C6
:103BE0008DE797E00E94E9D40C94E12B0C3241E080
:103BF000140711F40C948D270CF068C0083C1105D3
:103C000009F40BC78CF50D37110509F416C5BCF482
:103C10000737110509F49BC60CF45FC60837110578
:103C200009F498C60937110511F00C94C12B1092B4
:103C3000DA091092D9090E9404960C94E12B0139FB
:103C4000110509F48FC634F40C38110509F494C435
:103C50000C94C12B0B39110509F4C7C40E3B110597
:103C600009F4AEC40C94C12B0E3C110509F4A8C78D
:103C7000ACF40B3C110509F43DC734F4093C1105C3
:103C800009F415C70C94C12B0C3C110509F451C75C
:103C90000D3C110509F481C70C94C12B0C3D110595
:103CA00011F40C94C42634F4033D110509F4A6C79D
:103CB0000C94C12B0D3D110511F40C94EB26023E22
:103CC000110511F40C9441270C94C12B043F81E0A1
:103CD000180711F40C94F62ACCF50A39A1E01A075A
:103CE00009F421C4C4F40E32E1E01E0711F40C946F
:103CF000212814F40C94A2270F3221E0120711F4AA
:103D00000C9465280039114011F00C94C12B0E94CD
:103D1000F2600C94E12B043A41E0140711F40C9486
:103D200078283CF40C39114011F40C9468280C9458
:103D3000C12B053A91E0190711F40C94C8290C3AEB
:103D4000114011F40C94982A0C94C12B0C30B2E061
:103D50001B0711F40C94192BB4F4063FF1E01F0774
:103D600011F40C94FC2A14F40C94F92A073F31E066
:103D7000130711F40C94FF2A083F114011F40C941E
:103D8000082B0C94C12B003A53E0150709F4E1C14C
:103D90006CF4083592E0190711F40C94212B0B35C3
:103DA000124011F40C94242B0C94C12B073EB3E069
:103DB0001B0711F40C949D2B093E134011F40C9435
:103DC000AB2B0C94C12B80E50E948D4B882329F0EE
:103DD0000E94C94A6B017C0103C0C12CD12C760121
:103DE00083E50E948D4B882361F00E94114B20E0F7
:103DF00030E04AE754E40F94DD050F94E00D6B01C9
:103E00007C010E94F2608091271390912813009703
:103E100021F061E00E94EFC805C060E08FE496E009
:103E20000E9474C840E0C701B6010E94D2370E94C8
:103E300047790C94E12B8091231384FF02C00C94EA
:103E4000B82C8091251387FF02C00C94B82C809168
:103E50002613837011F00C94B82C0C94D42C8AE7A0
:103E600096E00E9489D684E79FE00E9434B38BE1FC
:103E7000E4E7FFE0DE01119601900D928A95E1F7EB
:103E800060E070E0CE0101960E94DCE4CE01019674
:103E90000E9439B38BE696E00E9489D60C94E12B00
:103EA0000E94B48B0C94E12B0E9492898091511155
:103EB000877F809351110C94E12BE0912713F091AF
:103EC00028138081882329F0803209F410823196EA
:103ED000F8CF60E080912713909128130E94F18918
:103EE0000C94E12B8091720B8823E9F080E090E044
:103EF000A8E4B2E488A399A3AAA3BBA31C8E1D8E39
:103F00001E8E1F8E19821A821B821C8220E0AE0137
:103F1000405E5F4FBE01645E7F4FCE0101960E94FE
:103F20007D4E0C94E12B0E942331882321F00E94C6
:103F3000108B0E94D2BF0E9447790C94E12B809194
:103F4000511182FF03C08B7F809351110E940D514C
:103F50000C94E12B8091511183FD02C00C94E12B54
:103F600083E50E948D4B81110C94E22C0C94E12B83
:103F700083E40E94444B882319F185E996E00E946E
:103F800089D680911E0F882391F0BE016F5F7F4F0D
:103F90008BE19FE00E94FBB18E010F5F1F4FD801A4
:103FA0008D918D01882339F00E94D831F8CF8BE8AC
:103FB00096E00E9489D68AE00E94D8310C94E12BC9
:103FC0008091511182FF21C084EA96E00E9489D637
:103FD00060914D1170914E1180914F11909150113F
:103FE0004AE00E94DF318FE20E94D831609149118E
:103FF00070914A1180914B1190914C114AE00E94AE
:10400000DF310E94DD320C94E12B86EB96E00E94BA
:1040100089D60C94E12B80912713909128130E944C
:10402000A3890C94E12B8091511183FD02C00C9463
:10403000E12B0E9422798091511183FD02C00C94E2
:10404000E12B4091271350912813BE01645E7F4FEE
:1040500080E00E9482A98C01009711F40C94E12B5E
:104060006C8D7D8D19821C8222E0AC01CE010196FF
:104070000E9414B6811102C0F12C14C0CE01019629
:104080000E94F0A88823C1F361E0CE0101960E944E
:10409000DFB1009789F325EEFC0120831C820E948A
:1040A00084E0F82ECE0101960E9439B3B801FF20BA
:1040B00089F08FED96E00E947AD78AE00E94D8318D
:1040C00010924D1110924E1110924F1110925011EA
:1040D0000C94E12B87EC96E00E947AD78FE49FE066
:1040E0000E9489D60C94E12B8091511182FD0E948F
:1040F000F2608091511183FD02C00C94E12B60E0CD
:1041000080E50E94964C182F682F8091271390917C
:1041100028130E94F18983E50E948D4B882381F04A
:104120000E94D94AAB01BC0140934D1150934E11EE
:1041300060934F11709350118BE19FE00E94AAE2AF
:104140000E94108B11110C94E12B0E94D2BF0C9491
:10415000E12B2091271330912813909151119260F7
:1041600090935111C9010E94A3890C94E12B0E94E4
:10417000A8497B018C0120E831E541E050E00F9433
:10418000CD0BC9016DE671E00F94150C4B015C017C
:10419000C801B70120E13EE040E050E00F94CD0BB4
:1041A000CA01B90128E130E040E050E00F94CD0BA6
:1041B000762E672EC62ED72E8CE3282E312C412C3E
:1041C000512CC801B701A20191010F94CD0BF62E1D
:1041D000E72ECA01B901A20191010F94CD0BCB01C9
:1041E0008E010F5F1F4F8114910499F0EF92FF929F
:1041F0007F936F936F927F92BF92AF929F928F92B5
:104200008DEE96E09F938F931F930F930F940F055E
:1042100013C0A114B104B1F0EF92FF927F936F939A
:104220006F927F92BF92AF9281EF96E09F938F93B0
:104230001F930F930F940F050FB6F894DEBF0FBEB8
:10424000CDBF30C0CD2879F0EF92FF927F936F936E
:104250006F927F9285EF96E09F938F931F930F93BA
:104260000F940F05E9CF892B69F0EF92FF927F93AE
:104270006F9389EF96E09F938F931F930F930F9403
:104280000F05DACFEF92FF928DEF96E09F938F9319
:104290001F930F930F940F050F900F900F900F9097
:1042A0000F900F9060E0C8010E94EFC80E9491D764
:1042B000B80181E097E00E947AD78AE00E94D83165
:1042C0000C94E12B6DE070E080E50E94874C8C013E
:1042D00097FF02C00C94E12BE82E60E089E40E9475
:1042E000964C81110C94F32C802F0E9473F5811150
:1042F000E5C50C94F32C0E940CC00C94E12B80912A
:104300005F0983FF02C00C94E12B0E944B4C87FF96
:1043100002C00C94E12B83E50E948D4B882379F039
:104320000E94114B0F94D90DCB010E94AEB70E9491
:10433000E49D811104C00E9421C00E9447790E941F
:1043400098F50C94E12B80915F0983FF02C00C94D7
:10435000E12B0E944B4CF82E87FF02C00C94E12BFE
:1043600083E50E948D4B082F811106C082E50E94D3
:104370008D4B182F882381F10E94114B0F94D90D7A
:10438000CB010E94AEB70E94E49D882311F40C94E7
:10439000302D0E94D2BF6091F00E7091F10E072E69
:1043A000000C880B990B0F947E054B015C0140902B
:1043B000EC0E5090ED0E6090EE0E7090EF0EA3019B
:1043C00092010F94CD0E181614F40C94502D002366
:1043D00011F40C94362D11E00E9498F5112311F47C
:1043E0000C94E12B602F8F2D0E9435B80C94E12B9B
:1043F0000E944B4C182F87FD0AC089EA9FE20E9459
:1044000089D6812F0E94BEB78AE00E94D8312396B8
:10441000EFAD2397E09334030C94443080E50E9481
:10442000738081110C94E12B81E40E94444B88231A
:1044300021F060919B0470E002C06FEF70E083E5B3
:104440000E94744C8F3F910519F010F08FEF90E0AF
:1044500080939B040C94E12B80E50E947380811172
:104460000C94E12B10929B040C94E12B8EE40E949F
:104470008D4B882311F40C94E12B0E94D94A609350
:10448000B0137093B1138093B2139093B3130C9441
:10449000E12B83E50E94444B882329F083E50E94A9
:1044A000738080935F090E9491D789E297E00E9410
:1044B00089D680915F09882369F115E2E12E1BE01E
:1044C000F12E00E010E020E080915F0990E0A0E094
:1044D000B0E0002E04C0B695A795979587950A94ED
:1044E000D2F780FF0EC0DD24D394D20E222319F020
:1044F0008CE20E94D831F701859194910E9489D66F
:104500002D2D0F5F1F4FF2E0EF0EF11C053011054E
:10451000D9F651CD85E297E04CCD1092E21210927F
:104520002A020C94E12B0E948B300C94E12B83E542
:104530000E948D4B882381F00E94E94A282F30E0A9
:104540002D33310524F4809300020C94E12B8CE38D
:10455000809300020C94E12B0E9491D740910002BD
:1045600050E060E070E08EE397E00E943ED78AE082
:104570000E94D8310C94E12B80915F0983FF02C027
:104580000C94E12B83E50E948D4B882371F00E94EF
:10459000114B0F94D90D6C3871050CF48B011093ED
:1045A000A2120093A1120E94749D0E94E49D8111A9
:1045B0000C94E12B0E9421C00E9447790C94E12BBE
:1045C00080915F0983FF02C00C94E12B83E50E9478
:1045D0008D4B8BAB81110C94532D82E50E948D4B3A
:1045E00081110C94532D0C94E12B83E50E948D4B8B
:1045F000882311F40C94E12B0E94E94A182F90E0D3
:10460000CD970CF01CE310932E030E941DF56B0157
:104610007C01212F30E0A8EEB3E00F94FA0BC60E18
:10462000D71EE81EF91EC0922A03D0922B03E092F7
:104630002C03F0922D030C94E12B0E940D510C944D
:10464000E12B83E50E94444B882369F08091D509D2
:10465000882319F089E697E002C083E697E00E947C
:1046600089D60C94E12B269A2E9881E08093D50967
:1046700064E670E080E090E00E94E3F40E944779F5
:104680000C94E12B0E94F79D0E9421C00E9462625F
:104690000E94203168EE73E080E090E00E9465D6D1
:1046A000269A2E9A1092D50960E08FE697E00E9434
:1046B00074C80C94E12B809133038F7E80628093C9
:1046C00033030C94E12B83E50E948D4B8823A1F0EA
:1046D0000E94114B20E030E04AE754E40F94DD05DE
:1046E0000F94E00D60930102709302028093030225
:1046F000909304020C94E12B8091231384FF02C059
:104700000C94E82E8091251387FF02C00C94E82EAC
:1047100080912613837011F00C94E82E0C94192FBD
:1047200083E50E94444B882311F40C94E12B0E94F2
:104730001DF56093A4127093A5128093A612909316
:10474000A7120E94114B20E030E04AE754E40F9496
:10475000DD050F94E00D60932F0370933003809379
:104760003103909332030C94E12B0E944B4C87FF52
:1047700002C00C94E12B9091231394FD04C09091FE
:10478000251397FF0AC0EFE6CE2EE2E0DE2EF0E61C
:10479000EF2EF9E0FF2E10E00AC0909126139370DF
:1047A00091F7682F81E00E948E4A0C94E12BD6018C
:1047B0008D916D010E948D4B882309F46DC01330DB
:1047C00009F063C00E94114B4B015C0120E030E016
:1047D00040EA51E40F94770587FF4EC0A50194018C
:1047E000609180097091810980918209909183097B
:1047F0000F94670D2B013C019B01AC0160917F047C
:104800007091800480918104909182040F94DD0561
:1048100060937F047093800480938104909382045A
:10482000A301920160919009709191098091920980
:10483000909193090F94DD0560939009709391090D
:10484000809392099093930960918F0470919004E2
:1048500080919104909192040F947C05A3019201A0
:104860000F94DD050F94E00D60938F047093900416
:104870008093910490939204809280099092810990
:10488000A0928209B092830907C00E94114BF701E0
:10489000648B758B868B978B1F5FF4E0EF0EF11C9A
:1048A000143009F084CF0E94CE608BC70E9476A698
:1048B00088EA9FE00E948FA584C78091271390917A
:1048C0002813009709F437CBDC012C91222309F43B
:1048D00032CB60E00E94EFC874C70091271310919B
:1048E000281394E0F12C40E0915021F1F8018081EF
:1048F000282F2B7F213421F421812133D9F407C0C3
:104900008035C1F4818180538A3048F013C08134EE
:1049100021F0853421F441E002C0FF24F394980192
:104920002E5F3F4F89012F5F3F4FF801808180321A
:10493000C9F3DACF41110E9491D7FF2021F080E620
:1049400099E00E9489D6C8010E94E3323AC70E94CA
:10495000D29537C781E08093DA098093D9090E9404
:1049600004962FC760E070E083E50E94874C8C01BD
:104970001127023011053CF00E948DD784E699E0A2
:104980000E9489D61EC788E40E948D4B8823A9F017
:104990000E940D4B8A3A91053CF08530F1E09F076B
:1049A0002CF084E091E002C08AEA90E0F801EE0F7A
:1049B000FF1FE450FC4E9183808386E40E948D4B60
:1049C000882381F00E940D4B97FD07C08F3F910512
:1049D00029F024F08FEF90E001C080E0F801EA5068
:1049E000FC4E808382E40E948D4B882309F4E9C643
:1049F0000E940D4B8530910534F08D3891052CF0D7
:104A00008CE890E002C085E090E0F801EE0FFF1F17
:104A1000E850FC4E91838083D4C60E944B4C182FE3
:104A200087FDCFC684E40E94444B8823E9F10E94AD
:104A3000114B6B017C0101E020E030E0A9010F94F3
:104A40007705811101C000E00093F10320E030E020
:104A5000A901C701B6010F947705882329F124E045
:104A60001202F0011124EA50FC4FC082D182E2828E
:104A7000F38220E030E0A9016091F6037091F70322
:104A80008091F8039091F9030F94770581110CC080
:104A900080E090E0A0EEBFE38093F6039093F703ED
:104AA000A093F803B093F9030E94A5588AC60E9408
:104AB0004B4C87FD86C65FE6E52E52E0F52E00E6FC
:104AC00019E0D7018D917D010E94444B882359F054
:104AD0000E94114B0F94E00DF80160837183828373
:104AE00093830E9487600C5F1F4FF9E000371F0718
:104AF00041F767C60E944B4C87FD63C64FE6E42E24
:104B000042E0F42E00E619E0D7018D917D010E946C
:104B1000444B882339F00E94114BF80164A375A31C
:104B200086A397A30C5F1F4FF9E000371F0761F7BB
:104B300048C68091241387FF02C00C941C2F8091DB
:104B400025138E7011F00C941C2F409194095091F4
:104B50009509609196097091970986E899E00E94FD
:104B60005CD7409198095091990960919A09709188
:104B70009B0985E791E30E945CD740919C09509185
:104B80009D0960919E0970919F0982E193E30E94C3
:104B90005CD78AE00E94D83114C6809123138271B9
:104BA00011F00C94622F809125138C7811F00C94E5
:104BB000622F80912613837011F00C94622F01C62E
:104BC0003DEDE32E39E0F32E10E088E5810F0E94E1
:104BD000444B882359F00E94114BD7016D937D936C
:104BE0008D939C931397812F0E948D901F5FB4E04B
:104BF000EB0EF11C133049F70C94E71B40900F0F9C
:104C00005090100F6090110F7090120F20912D0294
:104C100030912E0240912F0250913002C301B20117
:104C20000F946D0C6CA37DA38EA39FA38090130F94
:104C30009090140FA090150FB090160F2091310294
:104C4000309132024091330250913402C501B401D7
:104C50000F946D0C68A779A78AA79BA7C090170F20
:104C6000D090180FE090190FF0901A0F2091350294
:104C7000309136024091370250913802C701B60197
:104C80000F946D0C6CA77DA78EA79FA7209139026A
:104C900030913A0240913B0250913C02C301B20173
:104CA0000F946D0C2B013C0120913D0230913E028E
:104CB00040913F0250914002C501B4010F946D0C28
:104CC0004B015C012091410230914202409143022C
:104CD00050914402C701B6010F946D0C6B017C0129
:104CE0000E9491D788ED99E00E9489D683E50E94C1
:104CF000444B882321F00E94FD4A80934502809115
:104D00004502882319F08CE096E002C086E998E01D
:104D10000E9489D680ED99E00E9489D64CA15DA1C0
:104D20006EA17FA18DE693E30E945CD748A559A5AB
:104D30006AA57BA58EE490E20E945CD74CA55DA598
:104D40006EA57FA586E492E30E945CD784ED96E28F
:104D50000E9489D688EC99E00E9489D6B301A2010D
:104D60008DE693E30E945CD7B501A4018EE490E246
:104D70000E945CD7B701A60186E492E30E945CD74B
:104D80008AE00E94D8311DC583E50E948D4B88239F
:104D900031F00E940D4B9093470280934602809120
:104DA000231390912413A0912513B0912613892BDE
:104DB0008A2B8B2B09F005C5609146027091470242
:104DC00088EE99E00E946DD785E20E94D8318AE092
:104DD0000E94D831F6C40E944B4CF82E87FDF1C4D6
:104DE00083E50E948D4B0F2D0F2C000C110B882397
:104DF00069F10E940D4BF801EE0FFF1FE95FFD4FB7
:104E000091838083000F111F000F111FF801E75ECF
:104E1000FD4F7F01BC01990F880B990B0F947E0504
:104E20002AE037ED43E25CE30F94DD05F801EE5034
:104E3000FC4F20813181428153810F94DD05D701E0
:104E40006D937D938D939C931397BBC40E9491D7D0
:104E500085E40E94D83180E38F0D0E94D831F8019B
:104E6000EE0FFF1FE95FFD4F608171818CEE99E0CD
:104E70000E946DD785E20E94D8318AE00E94D83125
:104E8000A0C480E50E94444B882309F49AC460E0E2
:104E900070E080E50E94874CF82E6FEF7FEF83E58E
:104EA0000E94874C8C010196039708F08AC4F7FC96
:104EB00088C48F2D0E9473F5882339F00E948DD706
:104EC00084EF99E00E9489D67CC40E94F26060E081
:104ED0008F2D0E944E830F3FBFEF1B0731F0013033
:104EE000110571F000E010E00DC08F2D0E94F682D8
:104EF00031E020E0892B09F030E0032F122F02C0AF
:104F000001E010E08F2D0E94F6828017910709F4CE
:104F100058C480E00E940433F5CF64E071E083E57B
:104F20000E94744C8C0168EE73E080E50E94744C22
:104F30008938E3E19E0710F088E893E1B8010E9408
:104F400047C83FC485E40E947380811173C080E527
:104F50000E94444B882351F00E94114B6093F30E42
:104F60007093F40E8093F50E9093F60E89E40E94F0
:104F7000444B882381F00E94114B2CEA35EC47E228
:104F80005EE30F94DD056093F70E7093F80E809347
:104F9000F90E9093FA0E84E40E94444B882381F02A
:104FA0000E94114B2CEA35EC47E25EE30F94670D4B
:104FB0006093FB0E7093FC0E8093FD0E9093FE0E9B
:104FC0000E9491D74091F30E5091F40E6091F50E2E
:104FD0007091F60E8DE19AE00E945CD72CEA35ECD8
:104FE00047E25EE36091F70E7091F80E8091F90E42
:104FF0009091FA0E0F94670DAB01BC0189E19AE024
:105000000E945CD72CEA35EC47E25EE36091FB0E30
:105010007091FC0E8091FD0E9091FE0E0F94DD05B7
:10502000AB01BC0185E19AE00E945CD78AE00E9456
:10503000D831C7C30E948DD783E09AE00E9489D6F9
:10504000C0C383E50E94444B182F882371F00E944F
:10505000114B0F94D90D70931E0260931D0221E035
:10506000672B09F020E02093AC0480E50E94444BBC
:10507000882359F020911D0230911E02232B11F03C
:105080000E94FD4A8093AC049CC311119AC30E94F4
:1050900091D78AE39AE00E9489D68091AC04882354
:1050A00019F080E69EE202C081E29AE00E9489D671
:1050B00060911D0270911E0289E29AE00E946DD7F4
:1050C00085E29AE00E9489D67CC30E94B96679C3C2
:1050D00080912513867009F06CC70E9491D78DE4EA
:1050E0009AE00E9489D6809160020E9432D769C3FB
:1050F00083E50E94444B882349F00E94FD4A382EE4
:10510000811106C080E00E941DD602C03090FA03D3
:105110004090FF0E5090000F6090010F7090020FB2
:105120002091030F3091040F4091050F5091060F0D
:1051300028AF39AF4AAF5BAF8091070F9091080F4E
:10514000A091090FB0910A0F8CAF9DAFAEAFBFAF6A
:1051500086E50E94444B8CAB0E9438D6882309F424
:10516000B2C083E40E94444B882309F4B8C00E9473
:10517000114B6B017C01912C812CE8EC2E2E92ECD2
:105180009CA718AA19AAA8ECAAABB2E4BBABE4E0AE
:10519000ECA3FCA1F150FCA3FF3F09F440C024E0C4
:1051A00028A784E0F89FA001112422965FAF4EAF9C
:1051B000229758A5515058A75F3F59F32296EEAD5C
:1051C000FFAD2297E50FF11DEE0FFF1FEE0FFF1F42
:1051D000E95FF34FA080B1800281138128A939A92A
:1051E0004AA95BA9B501C8010F94770587FF04C0E0
:1051F000A8AAB9AA0AAB1BAB292D382D422D5CA554
:10520000B501C8010F94CD0E181624F0A92CB82CA6
:10521000022D1CA59A2C8B2C202E1CA7CACF292D21
:10522000382D422D5CA568A979A98AA99BA90F945C
:105230006D0C20E030E040E05FE30F94DD05A70156
:1052400096010F946D0C4B015C012DEB37E346E8A2
:1052500055EB0F94CD0E87FD0AC02DEB37E346E8E2
:1052600055E3C501B4010F9477051816C4F580E025
:105270000E941DD664E0E62EEA949FEFE91679F1CC
:1052800054E0F52EA4E0EA9E60011124FA94BFEFE9
:10529000FB1691F386010F0D111D000F111F000F5A
:1052A000111F095F134FA5019401F80160817181FD
:1052B000828193810F946C0CD8016D937D938D93B3
:1052C0009C931397E3CF311003C0BCA9BB23A1F07B
:1052D0000E9491D783E99AE00E9489D610C0ECA978
:1052E000EE2351F00E9438D6882331F08DE79AE002
:1052F0000E9489D60E9498D6832D0E941DD6332005
:1053000051F08091FA03811106C00E948DD78EE57D
:105310009AE00E9489D60E9491D78DE29FE00E9478
:1053200089D68091FA030E9432D72091FF0E3091E6
:10533000000F4091010F5091020FC301B2010F9471
:10534000770581110C94E71B2091030F3091040F16
:105350004091050F5091060F68AD79AD8AAD9BADB8
:105360000F94770581110C94E71B2091070F309162
:10537000080F4091090F50910A0F6CAD7DAD8EADB5
:105380009FAD0F947705882309F41BC20C94E71B8B
:1053900088E50E94444BD82E89E40E94444BC82ED5
:1053A000882321F00E940D4BA82E28C0DD2011F18A
:1053B0000E94114B20910F0F3091100F4091110F4F
:1053C0005091120F0F946C0C20E030E04AEA52E446
:1053D0000F946C0C2BEA3AEA4AEB51E40F946D0CF3
:1053E00028EF3AE84FEA5CE30F94DD050F94D90DFE
:1053F000643018F0AA24AA9401C0A62E89E50E9460
:10540000444BF82E8AE40E94444B182F882321F045
:105410000E940D4BB82E28C0FF2011F10E94114BA5
:105420002091130F3091140F4091150F5091160FCA
:105430000F946C0C20E030E04AEA52E40F946C0CBC
:105440002BEA3AEA4AEB51E40F946D0C28EF3AE864
:105450004FEA5CE30F94DD050F94D90D643018F02A
:10546000BB24BA9401C0B62E8AE50E94444BE82EB4
:10547000811105C081E50E94444B082F01C000E066
:10548000C11001C010E0812F90E0D11001C0F12CBB
:105490008F0D911D019721F4E11009C0011107C082
:1054A0000E948DD782EA9AE00E9489D68AC1A7FC21
:1054B00002C0B7FE07C00E948DD780E396E00E942D
:1054C00089D67FC10E94114BEA2CAA0CFF08AB2D94
:1054D000BB0CBB0B002391F0F701EE0FFF1FEE0F8B
:1054E000FF1FEA0FFB1FEE0FFF1FEE0FFF1FE95F0D
:1054F000F34F208131814281538103C020E030E0AD
:10550000A901F701EE0FFF1FEE0FFF1FEA0FFB1FB0
:10551000EE0FFF1FEE0FFF1F8F01095F134F0F9458
:105520006D0CD8016D937D938D939C93139749C116
:105530000E941D80811145C103E016E2EFEFFEE0FD
:10554000FDA3ECA39E012F5F3F4F190146E3C42E3C
:1055500046E2D42E7901F801659175918591949177
:10556000ACA1BDA18D909D90AD90BD90BDA3ACA30D
:10557000A50194010F946C0C2B013C01F701608391
:1055800071838283938320E030E040EA51EC0F94F2
:10559000CD0E87FD0AC020E030E040EA51E4C301AF
:1055A000B2010F94770518162CF4F60184911816A1
:1055B0000CF416C5D7018D909D90AD90BD907D01E6
:1055C00020E030E040EA51ECC501B4010F94CD0E6B
:1055D00087FD11C520E030E040EA51E4C501B40187
:1055E0000F94770518160CF01AC505C50E94233FC5
:1055F000E8C00E941EEEE5C00E94F3ECE2C061E04C
:1056000083E50E94964C91E089270E9434EED9C030
:1056100081E08093ED130E94DA431092ED1388230A
:1056200009F4CFC00E9491D78EEF9AE00E9489D6EC
:10563000C8C08091511182FFC4C080648093511111
:10564000C0C00E941550BDC00E944B4C082F87FD62
:10565000B8C085E50E94444B8823B1F1E02E002EAE
:10566000000CFF080E94114B4B015C0120E030E070
:10567000A9010F94CD0E87FF04C0B7FAB094B7F814
:10568000B094C70123E0880F991F2A95E1F79C0188
:1056900022513C4E7901D9018D929D92AD92BC92DE
:1056A000139720E030E048E453E4C501B4010F94BF
:1056B000CD0E18164CF480E090E0A8E4B3E4F701B6
:1056C00080839183A283B3838CE40E94444B88231C
:1056D00009F477C0002E000C110B0E94114B6B01D6
:1056E0007C0120E030E0A9010F94CD0E87FF04C0BB
:1056F000F7FAF094F7F8F09420E030E048E453E44F
:10570000C701B6010F94CD0E980193E0220F331F0D
:105710009A95E1F7F901E251FC4E18162CF0C4827B
:10572000D582E682F7824DC080E090E0A8E4B3E441
:1057300084839583A683B78344C081E080936F0BF5
:105740001092DF1260E083E50E94964C811139C00F
:105750000E94D2CD36C00E94A8496D3371058105E3
:10576000910520F081E29BE00E9403D58DE19BE052
:105770000E9403D589E09BE00E9489D60E94626264
:1057800020C00E9439791DC00091291310912A135D
:105790000023B9F00E9491D784E50E94D831B80166
:1057A0007727072E000C880B990B0E944C3280E261
:1057B0000E94D83183E09AE00E9489D602C00E94FC
:1057C00039792696FFAD2697F11102C00E94C2CD0D
:1057D00023962FAD23972093340356C40E94F26082
:1057E00080E00E941DD68091480290914902A091CC
:1057F0004A02B0914B028093370390933803A093F1
:105800003903B0933A0380914602909147029093F6
:1058100036038093350384E690E0909347028093AB
:10582000460281E08093DA090E94049688E50E948E
:10583000444B182F89E50E94444BF82E8AE50E94BC
:10584000444B1F1193C0181711F0F12E8FC0FF2485
:10585000F39411E001E080E1EFEFFEE0A3EFBBE0A5
:1058600001900D928A95E1F782E50E948D4B882385
:1058700069F00E94114B4B015C0120E030E0A9016E
:105880000F947705882309F43EC006C0812C912C23
:1058900040EAA42E41E4B42E111102C0FF20E9F128
:1058A0008091DC0982FD09C06091070F7091080F9B
:1058B0008091090F90910A0F03C060E070E0CB0166
:1058C000A50194010F946D0C6093FB0B7093FC0B7E
:1058D0008093FD0B9093FE0B2091070F3091080FE2
:1058E0004091090F50910A0F0F94CD0E18165CF4D9
:1058F00019821A821B821C82BE016F5F7F4F8BEF61
:105900009BE00E94EB94112319F080E00E94BAFE04
:10591000FF2019F081E00E94BAFE002319F082E016
:105920000E94BAFE0E943A958091D9098093DA09C3
:105930008091370390913803A0913903B0913A03D5
:105940008093480290934902A0934A02B0934B027D
:1059500080913503909136039093470280934602DD
:1059600083E080931F020E943C952BCF082F73CFBA
:1059700088E50E94444B81115F9889E50E94444B61
:1059800081118A988AE50E94444B882329F08091EE
:10599000080181708093060185E40E94444B8823AE
:1059A00009F40FCF12980DCF60E082E696E00E94D6
:1059B00074C85F988A98809108018170809306016D
:1059C0001298FFCE0E94D94AAB01BC0140934D1101
:1059D00050934E1160934F11709350118BE19FE0E3
:1059E0000E94AAE2EECE8DE40E948D4B8823D9F06E
:1059F0000E94E94A813069F038F0823079F462E03F
:105A0000802F0E944E83DDCE60E0802F0E944E8367
:105A1000D8CE61E0802F0E944E83D3CE8EE097E0F7
:105A20000E9489D6CECE83E50E948D4B882309F44F
:105A3000C8CE0E94E94AF82EB9E0EB1203C0809369
:105A40009B04BFCE61E0802F0E944E836F2D802F7C
:105A50000E941F836F2D70E0802F0E941AF4B1CE38
:105A60000E9421C00E9447790C94CB21A30192018E
:105A7000C501B4010F94CD0E181694F089E497E097
:105A80009F938F9380E297E09F938F931F920E9442
:105A9000D6C80F900F900F900F900F900C94EB21A1
:105AA00088E597E0EDCF0E94114B0F94D90D6C382B
:105AB00071050CF08AC17093A2126093A1120E942A
:105AC000749D0E94E49D81110E94D2BF6091A11239
:105AD0007091A212072E000C880B990B0F947E0573
